:020000040000fa
:10000000f0ff0020a10600006f1100007311000036
:1000100000000000000000000000000000000000e0
:10002000000000000000000000000000cf090000f8
:100030000000000000000000cf090000cf09000010
:10004000cf090000cf090000cf090000cf09000050
:10005000cf090000cf090000cf090000cf09000040
:10006000cf090000cf090000e1000000cf09000027
:10007000cf090000cf090000cf090000cf09000020
:10008000cf090000cf090000cf090000cf09000010
:100090004b110000cf090000cf090000cf0900007c
:1000a000cf090000cf090000cf090000cf090000f0
:1000b000cf090000cf090000cf090000cf090000e0
:020000040000fa
:1000c000f8b5c046f8bc08bc9e467047090e000053
:1000d000f8b5c046f8bc08bc9e467047e10d00006c
:020000040000fa
:1000e00070b56d4b9b7d002b19d06c4b9c6a6a4b95
:1000f0005b8b9b0714d5694b2022ff219954013259
:10010000fd399954654b20229b5c5bb2013300d1d1
:100110008fe0624b20229b5c062b00d1a2e070bdd9
:100120005d4b5b8bdb0707d55c4b2022ff2199548d
:100130000132fd399954e5e7574b5b8b5b0707d5d7
:10014000564b2022ff2199540132fe399954d9e7a8
:10015000524b20229b5c5ab2032b49d0042a13d065
:10016000022acfd14d4b1b69002b06d04b4b9888f0
:1001700080b2002100f06afdc4e7484b988880b245
:10018000012100f063fdbde7444a936912699a4278
:100190000dd0424a9268d05c3f4928228854591cad
:1001a0003d4ad369002bfcd13c4b9961aae73b4bfc
:1001b0005b69002b0ed0394b9b885b0001221343f7
:1001c000354a5362d369002bfcd1344b20220321e2
:1001d000995497e7304a5168c0239b020b43536000
:1001e000d369002bfcd12d4b20220621995489e79d
:1001f0002a4bd9695b69013b8b420cd0264ad369f3
:10020000002bfcd1254bda68234d2820285c505464
:100210000131d96176e7204a5068e023db020343cd
:100220005360d369002bfcd11c4b2022062098542c
:10023000e4e71a4b00219954174a5168c0239b02e6
:100240000b435360d369002bfcd1134b83221a76e6
:10025000124b5b6a002b00d161e7104b5b6a2000f8
:1002600098475ce70d4b002220215a5401315a5423
:10027000094b83321a761900533a4b8b1340102bdb
:10028000fbd1064b5b6a002b00d148e7034b5b6a4e
:100290002000984743e7c046000800425804002069
:020000040000fa
:1002a00084040020540000000000000058040020d6
:1002b0002c00000000000000e40400200800000002
:1002c00000000000f4040020040000000000000012
:1002d0000804002050000000000000000405002079
:1002e0006c00000001000000100500200c0500203b
:1002f000100500200000000025000000080000207c
:1003000000040000000000000000000000000000e9
:1003100000000000000000000000000000000000dd
:10032000000000007b110000000000000000000041
:1003300000000000000000006b0900000000000049
:1003400000000000000000000000000000000000ad
:100350000000000000000020080400000000000071
:10036000d005002020000000010000000100000076
:10037000030000000000000000000000000000007a
:100380000000000000000000ec040020ec0400204d
:100390000800000000000000f80400200400000035
:1003a0000000000070050020600000000100000057
:1003b0000100000003000000000000000000000039
:1003c000000000000000000000000000ed0a000036
:1003d00000000000000000000000000041110000cb
:1003e0008711000000000000000000000000000075
:1003f00000000000000000000000000000000000fd
:1004000000000000000000000000000000000000ec
:10041000f0050020040000000100000001000000c1
:10042000fc0400200800000000000000d8040020a8
:100430000c000000000000000000000000000000b0
:020000040000fa
:10044000f0b5c64600b58223db05584a1a60584a03
:100450001a61402506205855412298540022422115
:100460005a54413943241955013419550134195549
:1004700001341955013419550134195501341955f0
:100480000134195501341a550134185501341855e1
:1004900001341955013419550134195501341955d0
:1004a00001341a5501341a5501341a5501341a55bc
:1004b00001341a5501341a550134195501341955ae
:1004c00002341855013418552c3c1a5501341026a5
:1004d0001e55203c22369c5501369c5501369c55b4
:1004e0000136995501369a5501369a55013622271b
:1004f0009f5501369a5501369a5501369a552b3635
:10050000b0461a37de550137da550137da5542372a
:10051000dc26b602de511037264ede513037d85574
:100520000137d8550137d8550137d8550137d95536
:100530000137d9550137d9550137d9550137d95523
:100540000137d9550137d9550137d955cb315d54cc
:1005500001315d5401315d540131585401315a5417
:1005600001315a5405315854d439d1301954073017
:10057000195401301954ae315a5401315a540131d1
:100580005c5401315c5401315c5401314046585493
:1005900001315a5401315a5401315a5403315a54d9
:1005a00004315a5480bcb846f0bdc0460408fc0073
:0805b0000338fc180fb04300f2
:020000040000fa
:1005b800324b5b685b009b0a314a93630023537597
:1005c800110004228b691a42fcd12d491022cb68f4
:1005d8001a42fcd02a4a137d80210b431375294bfc
:1005e80000229a611a61284b284a1a6219000422cb
:1005f8004b681a42fcd1244acc234021d150100028
:100608008c31402243581a42fcd01f4ae82340212b
:10061800d1501000a831402243581a42fcd01a4a3f
:10062800ec234021d1501000ac31402243581a42eb
:10063800fcd0154af8234021d1501000b83140228f
:1006480043581a42fcd0104a88235b004021d150fd
:1006580010001900402243581a42fcd00a4a8a2343
:100668005b004021d15010001900402243581a4223
:10067800fcd0074b074ada617047c046206080000b
:100688000010004000140040001c0040060101005a
:080698000008004004100608f0
:020000040000fa
:1006a000f8b52b4b1b785bb2002b03db284b1b7878
:1006b0009b0730d5264b1b785b071bd580239b05fa
:1006c0000025234a01241026a5218c460127214814
:1006d00002e00433834225d01d6091792142f8d095
:1006e00091680e42f5d16146117391793943c9b2cf
:1006f0009171eee780239b05002515491024a5265e
:10070000144802e0043383420cd01d608a6814420e
:10071000f8d10e73f6e780239b0500210d4a02c332
:100720009342fcd10c4b98470c4b984700f0defbf2
:100730000b4bff2293430b4a93600b4b98470b4b99
:1007400098470b4b984700f056f800befee7c046ae
:10075000002000400000012047100000471000006a
:100760000000000000ed00e0910a000047100000ca
:04077000471000002e
:020000040000fa
:10077400f0b51600040002278269436987b09b1a0a
:1007840003939b19029204910596019302ad3a00da
:100794002900206800f022fc019b984208d1a3683c
:1007a400e268a3619a18a2626361300007b0f0bde9
:1007b40000280cda102200236168a3620a43a361b3
:1007c40063616260022f12d06b68f61aede7019b39
:1007d4001b1a01936b68984202d9c01a0835013f6d
:1007e4002b681b182b606b681b1a6b60cfe71e000d
:0207f400dbe741
:020000040000fa
:1007f600f0b5d6464f464646c0b5002000f0e5f8af
:1008060000f053fc8222d205882380218901d15031
:100816004908d1508900d1501500982780239b01a3
:100826009a465346eb51fa24a400200000f0f9fa48
:100836008023db019946eb51200000f0f2fa802379
:100846005b019846eb51200000f0ebfa94265346e4
:10085600ab51200000f0e5fa4b46ab51200000f00a
:0e086600e0fa4346ab51200000f0dbfad9e780
:020000040000fa
:10087400f7b51d4f03003c68201e0dd00022210057
:10088400100001920d68ac460d699c4509d1002aff
:1008940005d0156110310800febd2900f2e73d6066
:1008a400f8e79c4506d9002802d00668b44501d271
:1008b400080001920a00002defd10028ecd00500b9
:1008c40002680169d21a1035102a05d90360eb18a1
:1008d40019611900103a1a60844202d13960280063
:0c08e400dae7019b1961fae7fc04002030
:020000040000fa
:1008f000f8b5866a04000f001500002e0ad0a36a1e
:1009000062699b1aab420cd22a0039002000fff723
:1009100031ff05e000f0b4fb03003000002beed007
:10092000f8bd002df0d03422a256002a1bdb2b008c
:10093000d2b21e00013bf95c914212d13200390063
:100940002000fff717ff8642ead8bf19ae1b32001e
:100950003900606900f0c0fb636928009b1963617e
:0a096000dee7002be5d12e00f1e7e1
:020000040000fa
:10096a007fb51600c2680d0013000091591e8b4115
:10097a00f31a01938368040003926946022200680d
:10098a00029300f015fb002808dc18220821024017
:10099a00514062680a43626004b070bd01998142a5
:1009aa00fad2a268431ad3182364e368e263002bdd
:1009ba0001d13000f0e7531ce3631378ad19013d10
:0409ca002b70f6e7b1
:020000040000fa
:0209ce00fee742
:020000040000fa
:1009d00010b5144b06225a60134b1b68186800218f
:1009e00000f08efb114b1b681868002100f088fb9b
:1009f000fff726fdfff7e0fd00f09cfb00f018f884
:100a000000f001fb00f04cf900f0f6f800f01cfbe0
:100a100000f0c8f800f06cf900f048fa00f026fa8f
:100a200010bdc0460040004108050020ec05002034
:020000040000fa
:100a3000144b01221a601a00d369002bfcd1114b10
:100a4000802252005a601a00d369002bfcd10d4b52
:100a5000e822da600c4a1a601a00d369002bfcd134
:100a6000084b10225a831a00d369002bfcd1074b84
:100a7000002221215a5401395a54024b83329a756b
:100a80007047c046000800421600100058040020bd
:020000040000fa
:100a900000230e4a10b513600d4a13600d4a13600f
:100aa0000d4a13600d4a13600d4a536213610133fe
:100ab000936000f037fb00f064fb0a4c0a4b9c4249
:100ac00000d310bd08cc9847f8e7c046f8040020d2
:100ad0001404002010040020080400200c0400204e
:0c0ae00018040020cc000000d000000032
:020000040000fa
:100aec0070b504000d00002801d1002070bd4368d2
:100afc009b0607d5426983699a4215d80023a362e5
:100b0c00a3616361e36b216c8b4204d201222068e8
:100b1c00591a00f02efb00232364e3639d42e4d0ba
:100b2c00206800f01bfbe1e70022c36a1100984724
:0c0b3c006369002be2d101204042d7e7a2
:020000040000fa
:100b480037b5144d04002b68002b0fd000f058fa6d
:100b5800019001a800f09dfa0f230f3001999843e6
:100b680000f07cfa00280bd000232b60002c00d169
:100b780001340f230f349c4304d10c22064b1a6016
:100b880000203ebd2000fff771fe0028f9d0031faa
:0c0b98001c60f6e7f005002000050020be
:020000040000fa
:100ba400114b01229a6119008b691a42fcd00e4b39
:100bb4009a6902210a439a610c4ada618022263139
:100bc40099509a6927398a439a61190001228b69dd
:100bd4001a42fcd1064b00221a605a609a60da600d
:100be4001a615a619a617047001c00421746002e30
:040bf400a004002039
:020000040000fa
:100bf800114b01229a6119008b691a42fcd00e4be5
:100c08009a6902210a439a610c4ada6180222631e4
:100c180099509a6927398a439a61190001228b6988
:100c28001a42fcd1064b00221a605a609a60da60b8
:100c38001a615a619a617047002000421746002ed7
:040c4800bc040020c8
:020000040000fa
:100c4c0010b5114b00229a61da61104b83321a767f
:100c5c005a680f4c22405a601a00d369002bfcd101
:100c6c0000290cd0084b202203249c54400008433c
:100c7c00064b58621a00d369002bfcd110bd024bf5
:100c8c00202204249c54f1e7580400200008004260
:040c9c00fffffbff5c
:020000040000fa
:100ca000114b01221a7019000b8c1342fcd10f4b0f
:100cb0001b681a02e021c9000a409b065b0f1a4319
:100cc000094b9a8502225a7001325a737d329a700a
:100cd00000221a8104325a8107229a711a00138c59
:100ce0009bb2002bfbd17047004400422060800083
:020000040000fa
:100cf000114b01221a7019000b8c1342fcd10f4bbf
:100d00001b689a00e021c9000a401b055b0f1a43cb
:100d1000094b9a8502225a7001325a737d329a70b9
:100d200000221a8104325a8107229a711a00138c08
:100d30009bb2002bfbd1704700480042206080002e
:020000040000fa
:100d400070b5040016001d00022a1dd043689b06e2
:100d50001ad4002908d1002d01d18025ed002800ea
:100d60000830fff7f1fe010020236268a160134301
:100d70006360e5600a23012e01d001235b4222005b
:100d800034321370014be362002070bdf1080000a3
:020000040000fa
:100d900070b5104d04002b68002b0cd0002c12da1b
:100da0000d4a2b6812689b1a6242934208db28683e
:100db00004192c6006e000f0cff82b68002bedd171
:100dc0000120404270bd054b2a681b689b1aa34254
:100dd000eddaf5e7d8040020e0040020dc04002070
:020000040000fa
:100de00010b5064c2378002b07d1054b002b02d001
:100df000044800e000bf0123237010bd84040020dc
:100e00000000000000000000044b10b5002b03d0d0
:100e10000349044800e000bf10bdc04600000000c8
:080e200088040020000000001e
:020000040000fa
:100e280070b503000d4a56681268d20714d50c48ed
:100e380058430a4b9a6800280ed0013600211c003e
:100e480004e0b51aeb18c918884205d91300a2683e
:100e58009a42f6d89b1af6e770bdc04610e000e04b
:040e680080bb00004b
:020000040000fa
:100e6c00bff35f8f62b60c4bc220800019580b4a3f
:100e7c001140c02212040a431a508022d2001a6078
:100e8c00c52189005a58ff2082433f3802435a50eb
:100e9c00802252031a60704700e100e0ffff00ff60
:020000040000fa
:100eac000c4b01221a6019000b691a42fcd1094b38
:100ebc0010221a600d3a1a73074a9a8333229a72d7
:100ecc00064a0021116001225a721a001369002b84
:100edc00fcd17047003000427fbbffffe4040020d0
:020000040000fa
:100eec0010b50b480168002905d14368002b02d1cd
:100efc0000f029f910bd04008368064a9bb20c343b
:100f0c009b009b5842682000984780002018e9e716
:080f1c00a0020000c410000057
:020000040000fa
:100f240010b50a4b5b7a002b0ed0084b987ac0b2ee
:100f340033229a72064b1b68002b05d0002803d07d
:100f4400034b59681b68984710bdc04600300042e7
:040f5400e404002091
:020000040000fa
:100f5800074a1368002b01d1064b1360064b19682a
:100f6800002901d105491960054b12681a607047bc
:100f7800e0040020f8050020dc040020f807002029
:040f8800d804002069
:020000040000fa
:100f8c0001000022030048318a56501e02430a70a9
:100f9c005968042208001040114205d001200c327f
:0e0fac000a435a60404270471864d863fbe75e
:020000040000fa
:100fba00f7b5002516000c002f000190b74201db9f
:100fca002800febd62682168019800f0c2f8013766
:060fda002d180834f2e7b7
:020000040000fa
:100fe000f7b5002516000c002f000190b74201db79
:100ff0002800febd62682168019800f0b2f8013750
:061000002d180834f2e790
:020000040000fa
:02100600704731
:020000040000fa
:1010080010b5054c2368002b01d1fff7a1ff034b56
:1010180018682368c01a10bdd8040020dc0400201a
:020000040000fa
:10102800002310b5934206d103201840421e904178
:0e1038009b08c01810bdc45ccc540133f2e715
:020000040000fa
:021046007047f1
:020000040000fa
:10104800044b00221a609a60034a5a6004221a600c
:0c1058007047c04610e000e07fbb0000c5
:020000040000fa
:1010640003000020044a10b51468844203d11360bd
:0c10740018611960013010bdfc04002060
:020000040000fa
:1010800010b50400fff782ff002805d1a368e268cd
:0a109000a36163619b18a36210bd09
:020000040000fa
:10109a00006810b5002801da002010bdfff773fec2
:0610aa00431cfad1f8e737
:020000040000fa
:1010b000034b00229a601a6801210a431a607047a4
:0410c00010e000e05c
:020000040000fa
:1010c40013110000291000007711000077110000af
:0410d4007711000090
:020000040000fa
:1010d80010b5002a05d00023cc5cc45401339342d8
:0410e800fad110bd6c
:020000040000fa
:1010ec0010b500f031f8024b1860586010bdc046c6
:0410fc00ec040020e0
:020000040000fa
:1011000010b580234a424a41db005200fff718fe27
:0211100010bd10
:020000040000fa
:101112008a18914201d10020704700230b700131df
:02112200f7e7ed
:020000040000fa
:1011240010b5fff7e1ff00f02bf800f029f810bd2f
:020000040000fa
:0c113400014b84225a60704700400041cb
:020000040000fa
:0a11400010b5006800f00df810bdb6
:020000040000fa
:08114a0010b5fff7eafe10bd2d
:020000040000fa
:021152007047e4
:020000040000fa
:081154000048704770050020ff
:020000040000fa
:06115c0001204042704733
:020000040000fa
:061162000120404270472d
:020000040000fa
:0611680001204042704727
:020000040000fa
:04116e0000befee7da
:020000040000fa
:0411720000befee7d6
:020000040000fa
:04117600002070479e
:020000040000fa
:04117a00002070479a
:020000040000fa
:04117e000020704796
:020000040000fa
:021182007047b4
:020000040000fa
:021184007047b2
:020000040000fa
:021186007047b0
:020000040000fa
:0200000400807a
:04400000ff88feb384
:020000040000fa
:0200000400807a
:04400400bbfcffff03
:00000001FF
